:020000040000fa
:080000000002040000000000f2
:020000040000fa
:100400000f802000807f2200000188000000000093
:10041000050007000c000700800202000000000039
:100420000040da000000fe004440a9000000200067
:100430000000e0000300320000002000a00188005e
:100440004440a800000006002040200001002000d9
:100450001600370062004000e080480091018800eb
:100460009001ba0062004000e080480091018800dd
:100470009002ba0062004000e08048000002eb00f9
:100480006028e10005003a008301e900070033001d
:10049000038009000059eb00040037006128e100e7
:1004a000010032000082eb00050007009101880086
:1004b0001001ba000200e000e6ff3a00000005006b
:1004c000910188008002780062004000e0804800ce
:1004d0003559ba008301e900080032002559ba00f5
:1004e0008301e900050032000400e000f4ff32005f
:1004f00015d9ba008301e900f1ff3a0000000600b7
:100500000400fa00d2c2a800c002a900c022a900bb
:10051000c042a900c062a900c082a900c0a2a9006f
:10052000c0c2a900c0e2a9000000eb0010079800bb
:100530000000eb00000f780000003700d4c2bf00bd
:100540000044b2000004e000fcff3a000000eb00b1
:10055000000f7800a7003700c202a8000000eb00df
:1005600010079800030037001e0090000000e8000c
:10057000100798009e009000f0e12400808f50004a
:10058000f9ff3400c222a8000000eb001007980019
:10059000030037001e0090000000e80010079800dc
:1005a0009e009000f0e12400808f5000f9ff34009d
:1005b000c242a8000000eb001007980003003700bb
:1005c0001e0090000000e800100798009e009000b8
:1005d000f0e12400808f5000f9ff3400c262a800cf
:1005e0000000eb0010079800030037001e00900089
:1005f0000000e800100798009e009000f0e1240041
:10060000808f5000f9ff3400c282a8000000eb0088
:1006100010079800030037001e0090000000e8005b
:10062000100798009e009000f0e12400808f500099
:10063000f9ff3400c2a2a8000000eb0010079800e8
:10064000030037001e0090000000e800100798002b
:100650009e009000f0e12400808f5000f9ff3400ec
:10066000c2c2a8000000eb0010079800030037008a
:100670001e0090000000e800100798009e00900007
:10068000f0e12400808f5000f9ff3400c2e2a8009e
:100690000000eb0010079800030037001e009000d8
:1006a0000000e800100798009e009000f0e1240090
:1006b000808f5000f9ff3400c2e2a9000000eb0077
:1006c00010079800030037001e0090000000e800ab
:1006d000100798009e009000f0e12400808f5000e9
:1006e000f9ff3400c2c2a9000000eb001007980017
:1006f000030037001e0090000000e800100798007b
:100700009e009000f0e12400808f5000f9ff34003b
:10071000c2a2a9000000eb001007980003003700f8
:100720001e0090000000e800100798009e00900056
:10073000f0e12400808f5000f9ff3400c282a9004c
:100740000000eb0010079800030037001e00900027
:100750000000e800100798009e009000f0e12400df
:10076000808f5000f9ff3400c262a9000000eb0046
:1007700010079800030037001e0090000000e800fa
:10078000100798009e009000f0e12400808f500038
:10079000f9ff3400c242a9000000eb0010079800e6
:1007a000030037001e0090000000e80010079800ca
:1007b0009e009000f0e12400808f5000f9ff34008b
:1007c000c222a9000000eb001007980003003700c8
:1007d0001e0090000000e800100798009e009000a6
:1007e000f0e12400808f5000f9ff3400c202a9001c
:1007f0001e0fe800200020009e0f100056ff34005e
:040800004eff370070
:020000040000fa
:020000040002f8
:04aff800befa00009d
:020000040000fa
:020000040002f8
:04affc007fbf000013
:020000040000fa
:1000080004040000040400000404000004040000c8
:1000180004040000040400000404000004040000b8
:1000280004040000040400000404000004040000a8
:100038000404000004040000040400000404000098
:020000040000fa
:020000040000fa
:0408040000000000f0
:020000040000fa
:040808000000fe00ee
:00000001FF
