:020000040000FA
:060000000A128A11FC2F18
:1000A0008312031388150800831203138810861027
:1000B00008008312031386108814080083120313A8
:1000C0008810861408000A128A1154200A128A1114
:1000D0008312031388110800831203139F018316F0
:1000E00003139F01831203131F140800F0008312EF
:1000F00003130C1E7C287D287728700899000800BF
:10010000831603131815193099001812831203135C
:1001100098171813831603131813981683120313D2
:10012000181608007108803AFF0080307F02031D16
:100130009B2829307002031C9E289F28A428013088
:10014000F0000030F100A628F001F1010800F301F1
:10015000F401B0280130F3070318F40A0030F40763
:100160007408803AF2007108803A7202031DBA28BE
:1001700070087302031CBD28BE28AA280800831635
:1001800003139F177008F200F20DF20DF20D8312A7
:1001900003131F087206C73972069F001F151F1927
:1001A000D228D328CF281E08F100831603131E0877
:1001B000F0000800031083120313071D0314031833
:1001C000E228E628831203130715E9288312031394
:1001D00007110310881E03140318EF28F328831255
:1001E00003138816F62883120313881208000310DD
:1001F00083120313871E03140318FF280329831295
:100200000313871606298312031387120310081E8F
:10021000031403180C291029831203130816132939
:1002200083120313081208007008710403191929B6
:100230001B2901301C290030F200F3017208F00084
:100240007308F10070037104031D272928292E2942
:100250000A128A1150200A128A1133290A128A11AD
:1002600063200A128A1108008316031308108810ED
:1002700008118811081288120813881306108610B6
:1002800006118615061686160613861305148514A0
:10029000051587120711831203130810881008111F
:1002A0008811081288120813881306108610061188
:1002B000861506128612061386130800780879043C
:1002C0000319632964299329FD01FD0A722901306C
:1002D0000310F80DF90DFF3E031D68290130FC00E5
:1002E0007C08FD07F91F75297629672979087B02A3
:1002F000031D7C2978087A02031C7F29802986291E
:100300007808FA027908031CFB03FB020130031092
:10031000F90CF80CFF3E031D87290130FD02031D77
:100320009229932976297B08F9007A08F8000800B9
:10033000F601F701BD2976087107F4007208F30091
:100340000318F30AF61FA529F3037308F5007508CF
:1003500083120313FF00740884000A128A15002018
:100360000A128A110A128A1176200A128A110130A1
:10037000F6070318F70A0030F70776087107F4004C
:100380007208F3000318F30AF61FC729F303730872
:10039000F500750883120313FF00740884000A1225
:1003A0008A1500200A128A11003A031DD829D9297A
:1003B0009B290800F501F601700871040319E12971
:1003C000E229192AF701F70AF02901300310F00D8C
:1003D000F10DFF3E031DE6290130F4007408F70714
:1003E000F11FF329F429E52901300310F50DF60D6D
:1003F000FF3E031DF52971087302031D012A7008D1
:100400007202031C042A052A0C2A7008F2027108E1
:10041000031CF303F302751401300310F10CF00C0C
:10042000FF3E031D0D2A0130F702031D182A192A69
:10043000F4297608F1007508F0000800033075060D
:100440007604031D242A252A362A2F2AE830F000B4
:100450000330F1000A128A11A7200A128A118312AE
:100460000313861D342A352A262A652A0430750688
:100470007604031D3C2A3D2A4E2A472AE830F00024
:100480000330F1000A128A11A7200A128A1183127E
:100490000313061E4C2A4D2A3E2A652A053075068E
:1004A0007604031D542A552A652A5F2AE830F00095
:1004B0000330F1000A128A11A7200A128A1183124E
:1004C0000313861E642A652A562A08009030831278
:1004D0000313A0008930A1003208A3003108A20054
:1004E0003408A5003308A40039300A128A111D23EC
:1004F0000A128A113930F1000030F2000A128A1112
:1005000098210A128A11BE3083120313A000893089
:10051000A1003608A3003508A20039300A128A115A
:100520001D230A128A113930F1000030F2000A123C
:100530008A1198210A128A11E03083120313A00055
:100540008930A1003808A3003708A20039300A1208
:100550008A111D230A128A113930F1000030F2008D
:100560000A128A1198210A128A110800F901F41F4F
:10057000BA2ABB2AC22AF309F409F30A0319F40AB6
:10058000F901F90AF61FC52AC62ACF2AF509F60984
:10059000F50A0319F60A0130F7007708F906FA019F
:1005A000FB01730874040319D62AD72A0E2BF8010D
:1005B000F80AE52A01300310F30DF40DFF3E031D88
:1005C000DB2A0130F7007708F807F41FE82AE92A48
:1005D000DA2A01300310FA0DFB0DFF3E031DEA2A53
:1005E00074087602031DF62A73087502031CF92AA3
:1005F000FA2A012B7308F5027408031CF603F602AD
:100600007A1401300310F40CF30CFF3E031D022B8F
:100610000130F802031D0D2B0E2BE92A790803196E
:10062000122B132B182BFA09FB09FA0A0319FB0AE0
:100630007B08F4007A08F300080083120313AF006C
:100640002230A6002608AA00FC2B2530300603190C
:100650002A2B2B2B372B3008A6002F0884002608C6
:10066000831380000130A6002608AF07FC2BAB01E6
:100670002108A7002008A600A00A0319A10A27083C
:10068000FF00260884000A128A1500200A128A1127
:10069000B000A800A9012908003A0319502BFC2B2F
:1006A0002808003A0319142C643A03195B2B0D3AFD
:1006B00003195B2BFC2B2A08840083130008AD0070
:1006C000840A0008AE000230A6002608AA07AE1F62
:1006D0006A2B6B2B742B0330A6002608AB04AD09E4
:1006E000AE09AD0A0319AE0AB001B00A3008A6007F
:1006F0002607123E840088300318013EFF000A12CC
:100700008A1500200A128A11A7000A128A150020F1
:100710000A128A11A80028082E02031D912B27080F
:100720002D020318942B952B962BA02B0130A6009D
:100730002608B00705303006031D9F2BA02B762B13
:100740002B0803390319A52BA62BB12B2D30A6009E
:100750002F0884002608831380000130A600260895
:10076000AF073008A6002608AC00F32B0A30F800CB
:100770000030F9002C08A6002607123E84008830BD
:100780000318013EFF000A128A1500200A128A117E
:10079000F0000A128A1500200A128A11F1002E08B0
:1007A000F3002D08F2000A128A11DA210A128A11C6
:1007B0007108FB007008FA000A128A115E210A1201
:1007C0008A117808303E83120313A7002708B0006F
:1007D0003008A6002F08840026088313800001300B
:1007E000A6002608AF07FF30A6002608AC072C0A93
:1007F000031DFB2BFC2BB62B2108A7002008A6000D
:10080000A00A0319A10A2708FF00260884000A127B
:100810008A1500200A128A11A8002808B0003008A2
:10082000031D132C142C252B2F0884008313800107
:10083000080083160313AE01AF01AC01AD01AA019C
:10084000AB010A128A1134210A128A110A128A1182
:1008500080200A128A110A128A116C200A128A1147
:100860001430F0000030F1000A128A11A7200A1299
:100870008A118312031386193E2C3F2C5A2C033005
:10088000F5000030F6000A128A111E220A128A119F
:10089000831603132F08F1002E08F0000A128A11A4
:1008A00014210A128A11710883160313AF0070080D
:1008B000AE00302C061A5D2C5E2C6D2C0430F50039
:1008C0000030F6000A128A111E220A128A110A1238
:1008D0008A11F7200A128A11302C861A702C712C7A
:1008E000802C0530F5000030F6000A128A111E2215
:1008F0000A128A110A128A11DA200A128A11302C7D
:10090000831603132E082F040319872C882C122D0D
:100910000030F000F1000A128A11BF200A128A1179
:10092000710883160313A9007008A8000130F000B5
:100930000030F1000A128A11BF200A128A117108D0
:1009400083160313AB007008AA000230F3000030D6
:10095000F4000230F0000030F1000A128A11BF20CA
:100960000A128A117108F6007008F5000A128A113D
:10097000B6220A128A11740883160313AD00730895
:10098000AC00290883120313B2008316031328084E
:1009900083120313B100831603132B08831203136E
:1009A000B400831603132A0883120313B3008316BB
:1009B00003132D0883120313B600831603132C08A8
:1009C00083120313B500831603132F088312031336
:1009D000B800831603132E0883120313B7000A12FC
:1009E0008A1166220A128A11831603132908A100AC
:1009F0002808A0002B08A3002A08A2002D08A500A3
:100A00002C08A4002F08A7002E08A6000A128A119D
:100A100016250A128A11831603132108AF00200835
:100A2000AE00302C302C0A128A11002883160313D2
:100A30002508F1002408F0000A128A1192200A12F7
:100A40008A11710883120313EE007008ED008316FB
:100A500003132108803AFF0080307F02031D322DEE
:100A6000143020020318352D362D542D8316031310
:100A70002308803AFF0080307F02031D412D14308F
:100A800022020318442D452D542D0A128A11542098
:100A90000A128A115930F1008930F2000A128A11C3
:100AA00098210A128A11F52F831203136D086E0420
:100AB00003195B2D5C2D5D2DF52F83160313220882
:100AC000200283120313EB00831603132308031C75
:100AD000230A210283120313EC006C08803AFF0002
:100AE00080307F02031D762D65306B02031C792D4B
:100AF0007A2DA22E0A128A1159200A128A11CC309C
:100B0000F1008830F2000A128A1198210A128A1123
:100B1000D030F0000730F1000A128A11A7200A1223
:100B20008A116B2E0030F000F1000A128A11BF20EA
:100B30000A128A11710883160313A1007008A0001D
:100B40000130F0000030F1000A128A11BF200A12B1
:100B50008A11710883160313A3007008A2000230E3
:100B6000F3000030F4000230F0000030F1000A120F
:100B70008A11BF200A128A117108F6007008F50068
:100B80000A128A11B6220A128A11740883160313F4
:100B9000A5007308A4002508F1002408F0000A123B
:100BA0008A1192200A128A11710883120313EE002F
:100BB0007008ED0083160313210883120313B2009B
:100BC00083160313200883120313B1008316031343
:100BD000230883120313B40083160313220883121D
:100BE0000313B30083160313250883120313B600FF
:100BF00083160313240883120313B500831603130B
:100C0000270883120313B8008316031326088312E0
:100C10000313B7000A128A1166220A128A1183127C
:100C200003138619142E152E352E0330F5000030CF
:100C3000F6000A128A111E220A128A118316031361
:100C40002708F1002608F0000A128A1114210A125E
:100C50008A11710883160313A7007008A6000A12F0
:100C60008A1154200A128A11902E061A382E392E13
:100C7000482E0430F5000030F6000A128A111E22B8
:100C80000A128A110A128A11F7200A128A116B2E8F
:100C9000861A4B2E4C2E5B2E0530F5000030F600E8
:100CA0000A128A111E220A128A110A128A11DA20E5
:100CB0000A128A116B2E6D086E040319602E612EC4
:100CC0006B2E1C30F1008830F2000A128A11982134
:100CD0000A128A112F2E8316031322082002831270
:100CE0000313EB00831603132308031C230A2102BA
:100CF00083120313EC006C08803AFF0080307F02FF
:100D0000031D842E65306B02031C872E882E902EC7
:100D1000831603132603270403198F2E902E922D7A
:100D2000831203136D086E04031D972E982EF52F62
:100D30007530F1008830F2000A128A1198210A12E7
:100D40008A11F52F8316031320082202831203133E
:100D5000EB00831603132108031C210A23028312CC
:100D60000313EC006C08803AFF0080307F02031D03
:100D7000BB2E65306B02031CBE2EBF2EE72F0A125E
:100D80008A115E200A128A111330F1008930F200B4
:100D90000A128A1198210A128A11D030F000073005
:100DA000F1000A128A11A7200A128A11B02F00300E
:100DB000F000F1000A128A11BF200A128A1171088C
:100DC00083160313A1007008A0000130F00000306A
:100DD000F1000A128A11BF200A128A1171088316C3
:100DE0000313A3007008A2000230F3000030F400E7
:100DF0000230F0000030F1000A128A11BF200A12FE
:100E00008A117108F6007008F5000A128A11B622DC
:100E10000A128A11740883160313A5007308A4002C
:100E20002508F1002408F0000A128A1192200A1203
:100E30008A11710883120313EE007008ED00831607
:100E40000313210883120313B2008316031320082F
:100E500083120313B10083160313230883120313B1
:100E6000B40083160313220883120313B3008316FE
:100E70000313250883120313B600831603132408F3
:100E800083120313B5008316031327088312031379
:100E9000B80083160313260883120313B7000A123F
:100EA0008A1166220A128A11831203138619592F96
:100EB0005A2F7A2F0330F5000030F6000A128A11FB
:100EC0001E220A128A11831603132708F10026082E
:100ED000F0000A128A1114210A128A11710883166D
:100EE0000313A7007008A6000A128A1154200A12E0
:100EF0008A11D52F061A7D2F7E2F8D2F0430F500F5
:100F00000030F6000A128A111E220A128A110A12F1
:100F10008A11F7200A128A11B02F861A902F912F6A
:100F2000A02F0530F5000030F6000A128A111E22AB
:100F30000A128A110A128A11DA200A128A11B02FB3
:100F40006D086E040319A52FA62FB02F1C30F100D9
:100F50008830F2000A128A1198210A128A11742F1D
:100F6000831603132008220283120313EB00831657
:100F700003132108031C210A230283120313EC002C
:100F80006C08803AFF0080307F02031DC92F653056
:100F90006B02031CCC2FCD2FD52F831603132603F2
:100FA00027040319D42FD52FD72E831203136D08CE
:100FB0006E04031DDC2FDD2FF52F7530F100883016
:100FC000F2000A128A1198210A128A11F52F0A12C8
:100FD0008A1154200A128A11D030F0000730F10033
:100FE0000A128A11A7200A128A11831603132708EE
:100FF000A1002608A000080083010A128A11192CFA
:10100000FF1B0A2883137F1883170008840A03191B
:10101000FF0A08007F087F398A000408840A031940
:10102000FF0A8200013400340A340034643400348E
:10103000E8340334103427340A343C3441347634F1
:10104000693473346F343E340A3409343C344D34DB
:1010500065346E3473346134673465346D343E34D2
:10106000543465346D34703465347234613474349E
:1010700075347234613420346134633469346D34CE
:101080006134203464346F34203472346534633412
:101090006F346D3465346E346434613464346F3469
:1010A0002E3420344D346F3474346F347234203421
:1010B00061342034703461347234613472342E34CB
:1010C0003C342F344D3465346E34733461346734BA
:1010D00065346D343E340A343C342F344134763434
:1010E000693473346F343E3400340A343C34413450
:1010F0007634693473346F343E340A3409343C3402
:101100004D3465346E3473346134673465346D3412
:101110003E345334653467347534693464346F3421
:101120007234203473346F346C346134723420344C
:10113000623465346D34203470346F347334693400
:10114000633469346F346E34613464346F342E34F4
:1011500020344D346F3474346F347234203461343D
:101160002034703461347234613472342E343C343F
:101170002F344D3465346E347334613467346534E0
:101180006D343E340A343C342F344134763469347F
:1011900073346F343E3400340A343C344134763492
:1011A000693473346F343E340A3409343C344D347A
:1011B00065346E3473346134673465346D343E3471
:1011C0004D346F3474346F347234203461342034CD
:1011D00072346F3464346134723420347034613466
:1011E00072346134203461342034653473347134A2
:1011F000753465347234643461342E343C342F34A5
:101200004D3465346E3473346134673465346D3411
:101210003E340A343C342F344134763469347334E8
:101220006F343E3400340A343C344134763469340B
:1012300073346F343E340A3409343C344D346534ED
:101240006E3473346134673465346D343E344D34F8
:101250006F3474346F347234203461342034723417
:101260006F346434613472342034703461347234D5
:101270006134203461342034643469347234653428
:101280006934743461342E343C342F344D34653435
:101290006E3473346134673465346D343E340A34EB
:1012A0003C342F3441347634693473346F343E34F3
:1012B00000340A343C3441347634693473346F3446
:1012C0003E340A3409343C344D3465346E3473345E
:1012D0006134673465346D343E344D346F34743466
:1012E0006F34723420346134203470346134723499
:1012F000613472342E343C342F344D3465346E34C2
:1013000073346134673465346D343E340A343C34AC
:101310002F3441347634693473346F343E340034BE
:101320000A343C3441345134433431343E340A3489
:1013300009343C346C346434723431343E342034F7
:101340002534643420343C342F346C3464347234A7
:1013500031343E340A3409343C346C3464347234ED
:1013600032343E3420342534643420343C342F3439
:101370006C346434723432343E3400340A34093408
:101380003C34743465346D34703465347234613493
:1013900074347534723465343E3420342534643406
:1013A00020343C342F34743465346D3470346534F7
:1013B0007234613474347534723465343E340034BC
:1013C0000A3409343C34733474346134743465340D
:1013D0003E3420342534643420343C342F34733488
:1013E00074346134743465343E340A343C342F34FC
:0C13F00041345134433431343E34003475
:02400E003A3F37
:00000001FF
